:100000000C942A000C9447000C9447000C94470071
:100010000C9447000C9447000C9447000C94470044
:100020000C9447000C9447000C947E090C944B09E7
:100030000C9447000C9447000C9447000C94470024
:100040000C94460E0C9447000C9447000C94470007
:100050000C94470011241FBECFE5D4E0DEBFCDBF16
:1000600012E0A0E6B0E0E4E7FAE402C005900D92E9
:10007000A439B107D9F712E0A4E9B2E001C01D929A
:10008000A63CB107E1F70E94B3240C9438250C94E8
:100090000000EF92FF920F931F937B018C0120E0F1
:1000A00030E040E05FE40E94F50388238CF0C80153
:1000B000B70120E030E040E05FE40E94C1010E940F
:1000C00055049B01AC01205030404040504806C0D0
:1000D000C801B7010E9455049B01AC01B901CA01D6
:1000E0001F910F91FF90EF900895A0E0B0E0EBE733
:1000F000F0E00C94BC24DC012B01FA019C919230BD
:1001000008F439C1EB018881823008F433C194309E
:1001100069F4843009F02FC111969C91119789815F
:10012000981709F428C1AEE6B1E025C1843009F47E
:1001300021C18230A9F4923009F01DC19A01AD01AC
:1001400088E0EA010990AE01E90109929E0181501F
:10015000C1F7E201898111969C918923818308C1AD
:10016000923009F407C112962D903C901397EB0141
:100170008A819B811496AD90BD90CD90DC901797AD
:10018000EC80FD800E811F819101281B390BB90184
:1001900037FF04C066277727621B730B6032710537
:1001A0000CF061C0121613066CF537014801062EDB
:1001B00004C096948794779467940A94D2F721E0C8
:1001C00030E040E050E004C0220F331F441F551FB1
:1001D0006A95D2F721503040404050402E213F21B7
:1001E00040235123211531054105510521F021E01E
:1001F00030E040E050E079018A01E628F72808293C
:1002000019293CC0232BD1F1260E371E350146019A
:10021000062E04C096948794779467940A94D2F734
:1002200021E030E040E050E004C0220F331F441FC3
:10023000551F6A95D2F721503040404050402A2146
:100240003B214C215D21211531054105510521F04E
:1002500021E030E040E050E059016A01A628B728CB
:10026000C828D9280BC0821593052CF01C01AA249C
:10027000BB24650103C0EE24FF24870111969C91E5
:10028000D20111968C91981709F445C0992339F041
:10029000A80197012A193B094C095D0906C0A6016E
:1002A00095012E193F09400B510B57FD08C01182D3
:1002B0003382228224833583468357831DC081E0A5
:1002C00081833382228288279927DC01821B930B4A
:1002D000A40BB50B84839583A683B7830DC0220F2F
:1002E000331F441F551F24833583468357838281E0
:1002F000938101979383828324813581468157813D
:10030000DA01C9010197A109B1098F5F9F4FAF4F72
:10031000BF4328F30BC0918333822282EA0CFB1C7B
:100320000C1D1D1DE482F5820683178383E0808304
:10033000248135814681578157FF1AC0C901AA27F8
:1003400097FDA095BA2F81709070A070B0705695EF
:10035000479537952795822B932BA42BB52B848318
:100360009583A683B7838281938101969383828349
:10037000DF0101C0D201CD01CDB7DEB7E2E10C94BF
:10038000D824A0E2B0E0E7ECF1E00C94C824698343
:100390007A838B839C832D833E834F835887E9E048
:1003A000EE2EF12CEC0EFD1ECE010196B7010E943F
:1003B00046068E010F5E1F4FCE010596B8010E94C2
:1003C00046068A8991E089278A8BC701B801AE0168
:1003D000475E5F4F0E9475000E947105A096E6E09F
:1003E0000C94E424A0E2B0E0E8EFF1E00C94C8241F
:1003F00069837A838B839C832D833E834F835887C5
:10040000F9E0EF2EF12CEC0EFD1ECE010196B701A6
:100410000E9446068E010F5E1F4FCE010596B80161
:100420000E944606C701B801AE01475E5F4F0E94B9
:1004300075000E947105A096E6E00C94E424A0E209
:10044000B0E0E5E2F2E00C94BC2469837A838B830C
:100450009C832D833E834F835887CE010196BE0136
:10046000675F7F4F0E944606CE010596BE016F5E14
:100470007F4F0E9446069985923088F089898230A4
:10048000C8F0943019F4823051F404C0843029F457
:10049000923081F48EE691E0C6C0923049F420E0BB
:1004A0009A858A89981321E02A87CE010996BBC0D4
:1004B000823049F420E09A858A89981321E02A8BBA
:1004C000CE014196B0C02D843E844F8458886D88FB
:1004D0007E888F88988CEE24FF248701AA24BB2471
:1004E000650140E050E060E070E0E0E0F0E0C10174
:1004F00081709070892BE9F0E60CF71C081D191D1E
:100500009A01AB012A0D3B1D4C1D5D1D80E090E062
:10051000A0E0B0E0E614F7040805190520F481E036
:1005200090E0A0E0B0E0BA01A901480F591F6A1F8E
:100530007B1FAA0CBB1CCC1CDD1C97FE08C081E0F5
:1005400090E0A0E0B0E0A82AB92ACA2ADB2A3196B6
:10055000E032F10549F0660C771C881C991C569412
:10056000479437942794C3CFFA85EA892B893C892D
:100570008B859C85280F391F2E5F3F4F17C0CA01FE
:1005800081709070892B61F016950795F794E79428
:1005900080E090E0A0E0B0E8E82AF92A0A2B1B2BC3
:1005A00076956795579547952F5F3F4F77FDE7CF36
:1005B0000CC0440F551F661F771F17FD4160EE0CDE
:1005C000FF1C001F111F21503040403090E05907A0
:1005D00090E0690790E4790760F32B8F3C8FDB0193
:1005E000CA018F779070A070B07080349105A1051A
:1005F000B10561F447FD0AC0E114F10401051105DC
:1006000029F0405C5F4F6F4F7F4F40781A8EFE1786
:1006100011F081E08A8F4D8F5E8F6F8F78A383E01A
:10062000898FCE0149960E947105A096E2E10C9453
:10063000D824A8E1B0E0EFE1F3E00C94C42469838E
:100640007A838B839C832D833E834F835887B9E0C5
:10065000EB2EF12CEC0EFD1ECE010196B7010E948F
:1006600046068E010F5E1F4FCE010596B8010E940F
:1006700046062985223008F47EC03989323010F4CC
:10068000B8017CC08A859A8989278A87243011F02D
:10069000223031F4231709F06EC06EE671E06EC0AF
:1006A000343039F41D861E861F86188A1C861B86E8
:1006B00004C0323021F484E08987B7015FC02B8504
:1006C0003C858B899C89281B390B3C872B87ED84C3
:1006D000FE840F851889AD88BE88CF88D88CEA142F
:1006E000FB040C051D0540F4EE0CFF1C001F111F40
:1006F000215030403C872B8720E030E040E050E044
:1007000080E090E0A0E0B0E460E070E0EA14FB0478
:100710000C051D0540F0282B392B4A2B5B2BEA18C2
:10072000FB080C091D09B695A79597958795EE0CC2
:10073000FF1C001F111F6F5F7F4F6F31710531F775
:10074000DA01C9018F779070A070B0708034910584
:10075000A105B10561F427FD0AC0E114F10401050A
:10076000110529F0205C3F4F4F4F5F4F20782D87B8
:100770003E874F87588BBE01675F7F4FCB010E943A
:1007800071056896EAE00C94E024A8E1B0E0EBEC97
:10079000F3E00C94C82469837A838B839C832D8334
:1007A0003E834F83588789E0E82EF12CEC0EFD1E26
:1007B000CE010196B7010E9446068E010F5E1F4FC3
:1007C000CE010596B8010E9446068985823040F028
:1007D0008989823028F0C701B8010E94BE0601C095
:1007E0008FEF6896E6E00C94E424A8E1B0E0EBEF2C
:1007F000F3E00C94C82469837A838B839C832D83D4
:100800003E834F83588789E0E82EF12CEC0EFD1EC5
:10081000CE010196B7010E9446068E010F5E1F4F62
:10082000CE010596B8010E9446068985823040F0C7
:100830008989823028F0C701B8010E94BE0601C034
:100840008FEF6896E6E00C94E424A8E1B0E0EBE2D8
:10085000F4E00C94C82469837A838B839C832D8372
:100860003E834F83588789E0E82EF12CEC0EFD1E65
:10087000CE010196B7010E9446068E010F5E1F4F02
:10088000CE010596B8010E9446068985823040F067
:100890008989823028F0C701B8010E94BE0601C0D4
:1008A00081E06896E6E00C94E424ACE0B0E0EBE58F
:1008B000F4E00C94CC2469837A838B839C83CE01EF
:1008C0000196BE016B5F7F4F0E9446068D8182308C
:1008D00061F1823050F1843021F48E81882351F10E
:1008E0002EC02F81388537FD20C06E812F31310514
:1008F0001CF06623F9F023C08EE190E0821B930B7D
:1009000029853A854B855C8504C056954795379572
:1009100027958A95D2F76623B1F05095409530958A
:1009200021953F4F4F4F5F4F0EC020E030E040E039
:1009300050E009C02FEF3FEF4FEF5FE704C020E02A
:1009400030E040E050E8B901CA012C96E2E00C9496
:10095000E824A8E0B0E0EFEAF4E00C94C4247B01C2
:100960008C01611571058105910519F482E0898377
:1009700060C083E089838EE1C82ED12CDC82CB82DB
:10098000ED82FE820F831887C801B7010E942205FD
:10099000FC013197F7FF3BC0222733272E1B3F0B6B
:1009A00057016801022E04C0D694C794B794A79447
:1009B0000A94D2F740E050E060E070E081E090E01F
:1009C000A0E0B0E004C0880F991FAA1FBB1F2A95A2
:1009D000D2F70197A109B1098E219F21A023B1234C
:1009E0000097A105B10521F041E050E060E070E022
:1009F0004A295B296C297D294D835E836F83788723
:100A00008EE190E08E1B9F0B9C838B8312C03097EE
:100A100081F00E2E04C0EE0CFF1C001F111F0A9463
:100A2000D2F7ED82FE820F831887CE1ADF0ADC82AE
:100A3000CB821A82CE0101960E9471052896EAE0C7
:100A40000C94E024EF92FF920F931F937B018C0193
:100A500080E0E81680E0F80681E0080780E01807EB
:100A600088F48FEFE816F1040105110531F028F044
:100A700088E090E0A0E0B0E017C080E090E0A0E067
:100A8000B0E012C080E0E81680E0F80680E00807D9
:100A900081E0180728F088E190E0A0E0B0E004C011
:100AA00080E190E0A0E0B0E020E230E040E050E003
:100AB000281B390B4A0B5B0B04C016950795F7945E
:100AC000E7948A95D2F7F701EA58FE4F8081281BF8
:100AD000310941095109C9011F910F91FF90EF9010
:100AE0000895DF92EF92FF920F931F93FC01E48031
:100AF000F58006811781D1808081823048F480E0C2
:100B000090E0A0E1B0E0E82AF92A0A2B1B2BA5C04F
:100B1000843009F49FC0823021F4EE24FF24870141
:100B200005C0E114F1040105110519F4E0E0F0E05D
:100B300096C0628173819FEF623879070CF05BC0C9
:100B400022E83FEF261B370B2A3131052CF020E03D
:100B500030E040E050E02AC0B801A701022E04C0F6
:100B600076956795579547950A94D2F781E090E07E
:100B7000A0E0B0E004C0880F991FAA1FBB1F2A95F0
:100B8000D2F70197A109B1098E219F21A023B1239A
:100B90000097A105B10521F081E090E0A0E0B0E070
:100BA0009A01AB01282B392B4A2B5B2BDA01C901A7
:100BB0008F779070A070B07080349105A105B10559
:100BC00039F427FF09C0205C3F4F4F4F5F4F04C0EF
:100BD000215C3F4F4F4F5F4FE0E0F0E02030A0E05E
:100BE0003A07A0E04A07A0E45A0710F0E1E0F0E07D
:100BF00079018A0127C06038710564F5FB01E1586D
:100C0000FF4FD801C7018F779070A070B07080340B
:100C10009105A105B10539F4E7FE0DC080E490E02F
:100C2000A0E0B0E004C08FE390E0A0E0B0E0E80E08
:100C3000F91E0A1F1B1F17FF05C016950795F7948D
:100C4000E794319687E016950795F794E7948A958F
:100C5000D1F705C0EE24FF248701EFEFF0E06E2FFF
:100C6000679566276795902F9F77D794DD24D79453
:100C70008E2F8695492F462B582F5D29B701CA0123
:100C80001F910F91FF90EF90DF900895FC01DB0121
:100C9000408151812281622F6F7770E0221F2227CD
:100CA000221F9381892F880F822B282F30E0991FD4
:100CB0009927991F11969C93119721153105A9F534
:100CC000411551056105710511F482E037C082E8D4
:100CD0009FEF13969C938E9312979A01AB0167E056
:100CE000220F331F441F551F6A95D1F783E08C9361
:100CF0000DC0220F331F441F551F12968D919C91DA
:100D00001397019713969C938E931297203080E04F
:100D1000380780E0480780E4580758F314962D936D
:100D20003D934D935C93179708952F3F310579F4C8
:100D3000411551056105710519F484E08C930895FE
:100D400064FF03C081E08C9312C01C9210C02F5727
:100D5000304013963C932E93129783E08C9387E058
:100D6000440F551F661F771F8A95D1F7706414963C
:100D70004D935D936D937C93179708951F93DC01BA
:100D8000FB019C91923008F447C08081823008F4C6
:100D900043C0943051F411961C91843099F58181AF
:100DA000682F70E0611B71093FC0843021F09230E0
:100DB00031F48230B9F18181882389F12DC01196F7
:100DC0001C9111978230F1F081811817D9F4129695
:100DD0002D913C911397828193818217930794F010
:100DE00028173907BCF014968D919D910D90BC91F8
:100DF000A02D2481358146815781281739074A075C
:100E00005B0718F4112341F00AC082179307A40767
:100E1000B50740F4112319F061E070E005C06FEFF1
:100E20007FEF02C060E070E0CB011F910895DF9377
:100E3000CF93CDB7DEB729970FB6F894DEBF0FBEBC
:100E4000CDBF6A837B838C839D832E833F834887BA
:100E50005987198220917602309177024091780269
:100E6000509179026A817B818C819D810E94C503AA
:100E7000181664F52091760230917702409178023D
:100E8000509179026A817B818C819D810E94190336
:100E9000DC01CB019C01AD016E817F818885998544
:100EA0000E94C101DC01CB01BC01CD0120E030E09A
:100EB0004FE753E40E941F02DC01CB01BC01CD01CE
:100EC0000E944900DC01CB0189833DC0209176025C
:100ED0003091770240917802509179026A817B814A
:100EE0008C819D810E942504882364F520917602DF
:100EF0003091770240917802509179026A817B812A
:100F00008C819D810E941903DC01CB019C01AD0104
:100F100060E070E080E89FE30E94C101DC01CB014A
:100F2000BC01CD0120E030E04FE753E40E941F02F6
:100F3000DC01CB01BC01CD010E944900DC01CB01E9
:100F4000898301C01982898129960FB6F894DEBF82
:100F50000FBECDBFCF91DF910895DF93CF9300D027
:100F60000F92CDB7DEB78B8381E08A838B81853684
:100F700020F489810E94250801C01A828A810F907D
:100F80000F900F90CF91DF910895DF93CF93CDB75E
:100F9000DEB7A3E5B0E0E3E5F0E08081877B8C93EA
:100FA000A3E5B0E0E3E5F0E080818C93A3E5B0E059
:100FB000E3E5F0E080818F7C8C93A3E5B0E0E3E58E
:100FC000F0E080818C93A9E5B0E0E9E5F0E0808174
:100FD00081608C93A9E5B0E0E9E5F0E080818D7F48
:100FE0008C93CF91DF910895DF93CF93CDB7DEB788
:100FF000A3E5B0E0E3E5F0E08081887F8C93A3E592
:10100000B0E0E3E5F0E0808185608C93CF91DF91E3
:101010000895DF93CF93CDB7DEB7A3E5B0E0E3E566
:10102000F0E08081887F8C93CF91DF910895DF93EA
:10103000CF930F92CDB7DEB78983E2E5F0E08981E7
:1010400080830F90CF91DF910895DF93CF930F921C
:10105000CDB7DEB78983ECE5F0E0898180830F901E
:10106000CF91DF910895DF93CF93CDB7DEB7E2E55F
:10107000F0E08081CF91DF910895DF93CF93CDB7DA
:10108000DEB7A9E5B0E0E9E5F0E0808181608C930E
:10109000CF91DF910895DF93CF93CDB7DEB7A9E568
:1010A000B0E0E9E5F0E080818E7F8C93CF91DF9115
:1010B0000895DF93CF93CDB7DEB7A9E5B0E0E9E5BA
:1010C000F0E0808182608C93CF91DF910895DF936F
:1010D000CF93CDB7DEB7A9E5B0E0E9E5F0E08081D8
:1010E0008D7F8C93CF91DF910895DF93CF9300D0C4
:1010F0000F92CDB7DEB79B838A8381E089838A8193
:101100009B81009711F4198206C08A819B8190937C
:1011100095028093940289810F900F900F90CF9148
:10112000DF910895DF93CF9300D00F92CDB7DEB754
:101130009B838A8381E089838A819B81009711F454
:10114000198206C08A819B819093970280939602B0
:1011500089810F900F900F90CF91DF910895DF93C9
:10116000CF93CDB7DEB762970FB6F894DEBF0FBE50
:10117000CDBF6F87788B898B9A8B81E08E871A829F
:101180001B821C821D8219826F85788989899A89C0
:101190000E94A904DC01CB01BC01CD012FE632E1A4
:1011A00043E85AE30E941F02DC01CB018A879B8738
:1011B000AC87BD876E817F81888599850E94A9044F
:1011C0009B01AC018A859B85AC85BD85BC01CD01A9
:1011D0000E941707898389810E9417080E94F407DB
:1011E0001BC0E8E5F0E08081882F90E0817090706E
:1011F0000097B9F3A8E5B0E0E8E5F0E08081816010
:101200008C938A819B81AC81BD810196A11DB11D0A
:101210008A839B83AC83BD832A813B814C815D8122
:101220008E819F81A885B985281739074A075B07F2
:10123000C0F20E9409088E8562960FB6F894DEBF50
:101240000FBECDBFCF91DF910895DF93CF9300D034
:10125000CDB7DEB78A8381E089838A81853630F411
:101260008A810E94AD070E94F40701C0198289811A
:101270000F900F90CF91DF910895DF93CF93CDB76B
:10128000DEB7A8E5B0E0E8E5F0E0808181608C930E
:10129000CF91DF9108951F920F920FB60F921124F4
:1012A0002F933F934F935F936F937F938F939F936E
:1012B000AF93BF93EF93FF93DF93CF93CDB7DEB799
:1012C0008091940290919502009729F0E091940208
:1012D000F09195020995CF91DF91FF91EF91BF9128
:1012E000AF919F918F917F916F915F914F913F91BE
:1012F0002F910F900FBE0F901F9018951F920F9275
:101300000FB60F9211242F933F934F935F936F93D8
:101310007F938F939F93AF93BF93EF93FF93DF934D
:10132000CF93CDB7DEB78091960290919702009748
:1013300029F0E0919602F09197020995CF91DF9103
:10134000FF91EF91BF91AF919F918F917F916F919D
:101350005F914F913F912F910F900FBE0F901F9073
:101360001895DF93CF93CDB7DEB7AFE5B0E0EFE5EB
:10137000F0E0808180688C93CF91DF910895DF93B6
:10138000CF930F92CDB7DEB78983E2E3F0E080819F
:1013900062E040E00E945E0AABE5B0E0EBE5F0E021
:1013A000808180648C93A5E5B0E0E5E5F0E0808184
:1013B000982F9C7F8981892B8C930F90CF91DF91FF
:1013C0000895DF93CF93CDB7DEB7ABE5B0E0EBE5A3
:1013D000F0E080818F7B8C93CF91DF910895DF9334
:1013E000CF930F92CDB7DEB78983E2E3F0E080813F
:1013F00063E040E00E945E0AABE5B0E0EBE5F0E0C0
:10140000808180688C93A5E5B0E0E5E5F0E080811F
:10141000282F237F8981882F90E0880F991F880FBC
:10142000991F822B8C930F90CF91DF910895DF93BA
:10143000CF93CDB7DEB7ABE5B0E0EBE5F0E0808170
:101440008F778C93CF91DF910895DF93CF930F9295
:10145000CDB7DEB78983E8E3F0E0808162E040E069
:101460000E945E0AABE5B0E0EBE5F0E080818062CF
:101470008C93A4E5B0E0E4E5F0E08081482F898119
:10148000282F30E081E090E0022E02C0880F991FE3
:101490000A94E2F7842B8C930F90CF91DF910895FB
:1014A000DF93CF93CDB7DEB7ABE5B0E0EBE5F0E08F
:1014B00080818F7D8C93CF91DF910895DF93CF93BF
:1014C00000D000D00F92CDB7DEB789836A834B83FB
:1014D0008981843008F0D5C08A81883008F0D1C075
:1014E0008981282F30E03D832C838C819D81813040
:1014F000910509F443C02C813D81223031052CF443
:101500008C819D81009771F0BCC02C813D8122307F
:10151000310509F45FC08C819D818330910509F408
:1015200085C0AFC08B818130A1F4AAE3B0E0EAE3CB
:10153000F0E08081482F8A81282F30E081E090E020
:10154000022E02C0880F991F0A94E2F7842B8C9315
:1015500098C0AAE3B0E0EAE3F0E08081482F8A81F6
:10156000282F30E081E090E0022E02C0880F991F02
:101570000A94E2F7809584238C9383C08B81813019
:10158000A1F4A7E3B0E0E7E3F0E08081482F8A818F
:10159000282F30E081E090E0022E02C0880F991FD2
:1015A0000A94E2F7842B8C936CC0A7E3B0E0E7E3E6
:1015B000F0E08081482F8A81282F30E081E090E0A0
:1015C000022E02C0880F991F0A94E2F780958423A7
:1015D0008C9357C08B818130A1F4A4E3B0E0E4E3A5
:1015E000F0E08081482F8A81282F30E081E090E070
:1015F000022E02C0880F991F0A94E2F7842B8C9365
:1016000040C0A4E3B0E0E4E3F0E08081482F8A81A9
:10161000282F30E081E090E0022E02C0880F991F51
:101620000A94E2F7809584238C932BC08B818130C0
:10163000A1F4A1E3B0E0E1E3F0E08081482F8A81EA
:10164000282F30E081E090E0022E02C0880F991F21
:101650000A94E2F7842B8C9314C0A1E3B0E0E1E399
:10166000F0E08081482F8A81282F30E081E090E0EF
:10167000022E02C0880F991F0A94E2F780958423F6
:101680008C930F900F900F900F900F90CF91DF9150
:101690000895DF93CF9300D000D0CDB7DEB7898314
:1016A0006A838981843090F58981282F30E03C83DA
:1016B0002B838B819C8181309105D1F02B813C81E2
:1016C000223031052CF48B819C81009761F01EC083
:1016D0002B813C812230310581F08B819C818330CC
:1016E000910581F013C0EAE3F0E08A8180830EC0A7
:1016F000E7E3F0E08A81808309C0E4E3F0E08A81D7
:10170000808304C0E1E3F0E08A8180830F900F9032
:101710000F900F90CF91DF910895DF93CF9300D07A
:1017200000D00F92CDB7DEB789836A834B8389815E
:10173000843008F0D5C08A81883008F0D1C0898112
:10174000282F30E03D832C838C819D818130910551
:1017500009F443C02C813D81223031052CF48C8169
:101760009D81009771F0BCC02C813D8122303105F4
:1017700009F45FC08C819D818330910509F485C097
:10178000AFC08B818130A1F4ABE3B0E0EBE3F0E0DC
:101790008081482F8A81282F30E081E090E0022E5E
:1017A00002C0880F991F0A94E2F7842B8C9398C08B
:1017B000ABE3B0E0EBE3F0E08081482F8A81282F93
:1017C00030E081E090E0022E02C0880F991F0A9459
:1017D000E2F7809584238C9383C08B818130A1F4C0
:1017E000A8E3B0E0E8E3F0E08081482F8A81282F69
:1017F00030E081E090E0022E02C0880F991F0A9429
:10180000E2F7842B8C936CC0A8E3B0E0E8E3F0E04F
:101810008081482F8A81282F30E081E090E0022EDD
:1018200002C0880F991F0A94E2F7809584238C9355
:1018300057C08B818130A1F4A5E3B0E0E5E3F0E08F
:101840008081482F8A81282F30E081E090E0022EAD
:1018500002C0880F991F0A94E2F7842B8C9340C032
:10186000A5E3B0E0E5E3F0E08081482F8A81282FEE
:1018700030E081E090E0022E02C0880F991F0A94A8
:10188000E2F7809584238C932BC08B818130A1F467
:10189000A2E3B0E0E2E3F0E08081482F8A81282FC4
:1018A00030E081E090E0022E02C0880F991F0A9478
:1018B000E2F7842B8C9314C0A2E3B0E0E2E3F0E003
:1018C0008081482F8A81282F30E081E090E0022E2D
:1018D00002C0880F991F0A94E2F7809584238C93A5
:1018E0000F900F900F900F900F90CF91DF91089570
:1018F000DF93CF9300D000D00F92CDB7DEB78A83AD
:101900006B8319828A81843008F0B1C08B81883062
:1019100008F0ADC08A81282F30E03D832C834C81B4
:101920005D8141305105D9F18C819D8182309105D5
:1019300034F42C813D812115310571F098C04C8122
:101940005D814230510509F44DC08C819D81833009
:10195000910509F46AC08BC0E9E3F0E08081482F6B
:1019600050E08B81282F30E081E090E002C0880FAA
:10197000991F2A95E2F79A01282339238B81882F12
:1019800090E0A90102C0559547958A95E2F7CA01F2
:10199000009719F081E089836AC0198268C0E6E384
:1019A000F0E08081482F50E08B81282F30E081E0EB
:1019B00090E002C0880F991F2A95E2F79A01282328
:1019C00039238B81882F90E0A90102C05595479556
:1019D0008A95E2F7CA01009719F081E0898347C030
:1019E000198245C0E3E3F0E08081482F50E08B810D
:1019F000282F30E081E090E002C0880F991F2A95DF
:101A0000E2F79A01282339238B81882F90E0A901DE
:101A100002C0559547958A95E2F7CA01009719F0DB
:101A200081E0898324C0198222C0E0E3F0E0808154
:101A3000482F50E08B81282F30E081E090E002C0F9
:101A4000880F991F2A95E2F79A01282339238B8161
:101A5000882F90E0A90102C0559547958A95E2F735
:101A6000CA01009719F081E0898301C01982898138
:101A70000F900F900F900F900F90CF91DF910895DE
:101A8000DF93CF9300D000D0CDB7DEB789836A83D0
:101A90008981843090F58981282F30E03C832B8325
:101AA0008B819C8181309105D1F02B813C8122304A
:101AB00031052CF48B819C81009761F01EC02B8135
:101AC0003C812230310581F08B819C8183309105EE
:101AD00081F013C0EBE3F0E08A8180830EC0E8E37D
:101AE000F0E08A81808309C0E5E3F0E08A818083A9
:101AF00004C0E2E3F0E08A8180830F900F900F90A2
:101B00000F90CF91DF910895DF93CF9300D000D055
:101B1000CDB7DEB78A8319828A81843090F58A81B5
:101B2000282F30E03C832B838B819C818130910571
:101B3000D1F02B813C81223031052CF48B819C81AA
:101B4000009761F01EC02B813C812230310581F06D
:101B50008B819C818330910581F013C0E9E3F0E033
:101B6000808189830EC0E6E3F0E08081898309C02B
:101B7000E3E3F0E08081898304C0E0E3F0E080816A
:101B8000898389810F900F900F900F90CF91DF91F3
:101B90000895DF93CF9300D000D0CDB7DEB789830F
:101BA0006A838981282F30E03C832B838B819C8141
:101BB0008130910549F12B813C81223031052CF493
:101BC0008B819C81009761F05AC02B813C8122302F
:101BD000310571F18B819C8183309105E9F14FC012
:101BE000ABE3B0E0EBE3F0E08081482F8A81282F5F
:101BF00030E081E090E0022E02C0880F991F0A9425
:101C0000E2F784278C933BC0A8E3B0E0E8E3F0E080
:101C10008081482F8A81282F30E081E090E0022ED9
:101C200002C0880F991F0A94E2F784278C9327C07B
:101C3000A5E3B0E0E5E3F0E08081482F8A81282F1A
:101C400030E081E090E0022E02C0880F991F0A94D4
:101C5000E2F784278C9313C0A2E3B0E0E2E3F0E064
:101C60008081482F8A81282F30E081E090E0022E89
:101C700002C0880F991F0A94E2F784278C930F9073
:101C80000F900F900F90CF91DF9108951F920F92B8
:101C90000FB60F9211248F939F93AF93BF93EF933F
:101CA000FF93DF93CF93CDB7DEB7E091C402F091FD
:101CB000C502A4E2B0E08D919C9191838083CF9185
:101CC000DF91FF91EF91BF91AF919F918F910F9015
:101CD0000FBE0F901F901895DF93CF9300D000D0C8
:101CE0000F92CDB7DEB79C838B83EB81FC81818122
:101CF0008A83EB81FC8180818983A6E2B0E0E6E201
:101D0000F0E0808180688C93A6E2B0E0E6E2F0E04B
:101D10008081877F8C93A7E2B0E0E7E2F0E08081EA
:101D2000282F2F738A81882F90E00024969587951D
:101D30000794969587950794982F802D822B8C93E6
:101D40008981882F90E001978730910568F4A6E299
:101D5000B0E0E6E2F0E08081982F987F8981892BBE
:101D60008C9381E08D8301C01D828D810F900F9037
:101D70000F900F900F90CF91DF910895DF93CF9345
:101D800000D00F92CDB7DEB789837B836A83A7E249
:101D9000B0E0E7E2F0E08081982F907E8981892B86
:101DA0008C93A6E2B0E0E6E2F0E0808180648C9360
:101DB000E6E2F0E08081882F90E080719070959548
:101DC000879595958795959587959595879500978E
:101DD00079F3A6E2B0E0E6E2F0E0808180618C93E6
:101DE000E4E2F0E08081882F90E0EA81FB8191833A
:101DF0008083EA81FB81808191819C013070E5E2E2
:101E0000F0E08081882F90E0982F8827822B932BF9
:101E1000EA81FB819183808381E00F900F900F9086
:101E2000CF91DF910895DF93CF9300D00F92CDB77C
:101E3000DEB789837B836A838A819B819093C50205
:101E40008093C402A7E2B0E0E7E2F0E08081982F3F
:101E5000907E8981892B8C93A6E2B0E0E6E2F0E0E7
:101E6000808188608C93AFE5B0E0EFE5F0E08081A1
:101E700080688C93A6E2B0E0E6E2F0E080818064C6
:101E80008C9381E00F900F900F90CF91DF91089588
:101E9000DF93CF93CDB7DEB7A6E2B0E0E6E2F0E0A5
:101EA00080818F778C93A6E2B0E0E6E2F0E080815B
:101EB000877F8C93E7E2F0E01082A6E2B0E0E6E2F2
:101EC000F0E08081887F8C9381E0CF91DF9108954D
:101ED000DF93CF9300D00F92CDB7DEB7898389818E
:101EE000282F30E03B832A838A819B8181309105B2
:101EF00001F12A813B81223031052CF48A819B81BA
:101F0000009761F036C02A813B8122303105E1F033
:101F10008A819B818330910511F12BC080E065E0BF
:101F200041E00E945E0A80E065E040E00E948D0B87
:101F300020C081E067E041E00E945E0A81E067E046
:101F400040E00E948D0B15C080E066E041E00E94F9
:101F50005E0A80E066E040E00E948D0B0AC080E0EF
:101F600064E041E00E945E0A80E064E040E00E949C
:101F70008D0B0F900F900F90CF91DF910895DF930D
:101F8000CF93CDB7DEB780E00E94680F81E00E945A
:101F9000680F82E00E94680F83E00E94680FCF9173
:101FA000DF910895DF93CF9300D00F92CDB7DEB7C6
:101FB00089838981282F30E03B832A838A819B8112
:101FC00081309105D9F02A813B81223031052CF4F2
:101FD0008A819B81009761F022C02A813B81223057
:101FE000310591F08A819B818330910599F017C06A
:101FF00080E065E041E00E948D0B11C081E067E068
:1020000041E00E948D0B0BC080E066E041E00E9441
:102010008D0B05C080E064E041E00E948D0B0F90C5
:102020000F900F90CF91DF910895DF93CF9300D061
:102030000F92CDB7DEB789838981282F30E03B83AB
:102040002A838A819B8181309105D9F02A813B8145
:10205000223031052CF48A819B81009761F022C0E7
:102060002A813B812230310591F08A819B81833026
:10207000910599F017C080E065E040E00E948D0B6B
:1020800011C081E067E040E00E948D0B0BC080E052
:1020900066E040E00E948D0B05C080E064E040E017
:1020A0000E948D0B0F900F900F90CF91DF910895AC
:1020B000DF93CF9300D00F92CDB7DEB789838981AC
:1020C000282F30E03B832A838A819B8181309105D0
:1020D000D1F02A813B81223031052CF48A819B8109
:1020E000009761F01EC02A813B812230310581F0CA
:1020F0008A819B818330910581F013C080E065E087
:102100000E94C90D0EC081E067E00E94C90D09C0A0
:1021100080E066E00E94C90D04C080E064E00E9497
:10212000C90D0F900F900F90CF91DF910895DF931D
:10213000CF9300D000D0CDB7DEB78A8319828A81D1
:10214000282F30E03C832B838B819C81813091054B
:10215000D9F02B813C81223031052CF48B819C817C
:10216000009761F022C02B813C812230310591F033
:102170008B819C818330910599F017C080E065E0E8
:102180000E94780C898311C081E067E00E94780C7E
:1021900089830BC080E066E00E94780C898305C0CB
:1021A00080E064E00E94780C898389810F900F9011
:1021B0000F900F90CF91DF910895DF93CF93CDB71C
:1021C000DEB780E065E040E00E948D0B81E067E0D3
:1021D00040E00E948D0B80E066E040E00E948D0BA5
:1021E00080E064E040E00E948D0BCF91DF91089584
:1021F000DF93CF93CDB7DEB76C970FB6F894DEBF01
:102200000FBECDBF80E062E041E00E945E0A80E048
:1022100063E041E00E945E0A80E090E0A0EAB1E461
:10222000898F9A8FAB8FBC8F698D7A8D8B8D9C8DAA
:1022300020E030E04AE753E40E941F02DC01CB01BA
:102240008D8B9E8BAF8BB88F6D897E898F89988D92
:1022500020E030E040E85FE30E94250488232CF46E
:1022600081E090E09C8B8B8B3FC06D897E898F894C
:10227000988D20E03FEF4FE757E40E94C503181602
:102280004CF5698D7A8D8B8D9C8D20E030E040E29D
:1022900051E40E941F02DC01CB01BC01CD010E9470
:1022A0004900DC01CB019C8B8B8B0FC089E190E056
:1022B0009A8B898B89899A890197F1F79A8B898BF7
:1022C0008B899C8901979C8B8B8B8B899C89009730
:1022D00069F714C06D897E898F89988D0E944900A5
:1022E000DC01CB019C8B8B8B8B899C89988B8F8796
:1022F0008F8598890197F1F7988B8F8781E060E04F
:1023000041E00E945E0A81E061E041E00E945E0AD5
:1023100081E062E041E00E945E0A81E064E041E029
:102320000E945E0A83E30E94221282E30E9422122C
:1023300088E20E94221281E00E9422128CE00E9418
:10234000221280E090E0A0E2B1E48B879C87AD8709
:10235000BE876B857C858D859E8520E030E04AE7D1
:1023600053E40E941F02DC01CB018F839887A98769
:10237000BA876F81788589859A8520E030E040E8CA
:102380005FE30E94250488232CF481E090E09E8383
:102390008D833FC06F81788589859A8520E03FEFE6
:1023A0004FE757E40E94C50318164CF56B857C85F2
:1023B0008D859E8520E030E040E251E40E941F02BE
:1023C000DC01CB01BC01CD010E944900DC01CB0145
:1023D0009E838D830FC089E190E09C838B838B81EA
:1023E0009C810197F1F79C838B838D819E8101975E
:1023F0009E838D838D819E81009769F714C06F81C4
:10240000788589859A850E944900DC01CB019E83ED
:102410008D838D819E819A83898389819A81019799
:10242000F1F79A8389838CE00E94221281E00E9456
:1024300022126C960FB6F894DEBF0FBECDBFCF91BF
:10244000DF9108950F931F93DF93CF93CDB7DEB73E
:10245000C356D0400FB6F894DEBF0FBECDBFFE010D
:10246000ED59FF4F808380E063E040E00E948D0BD8
:10247000FE01E15AFF4F80E090E0A0E8BFE38083D7
:102480009183A283B3838E01055A1F4FFE01E15A47
:10249000FF4F608171818281938120E030E04AE7C3
:1024A00053E40E941F02DC01CB01F8018083918379
:1024B000A283B383FE01E55AFF4F6081718182815F
:1024C000938120E030E040E85FE30E942504882308
:1024D00044F4FE01E75AFF4F81E090E0918380834E
:1024E00064C0FE01E55AFF4F608171818281938152
:1024F00020E03FEF4FE757E40E94C50318160CF0A9
:1025000043C0FE01E15AFF4F608171818281938156
:1025100020E030E040E251E40E941F02DC01CB01E8
:102520008E01075A1F4FBC01CD010E944900DC01FA
:10253000CB01F801918380831FC0FE01E95AFF4F50
:1025400089E190E091838083FE01E95AFF4F808109
:1025500091810197F1F7FE01E95AFF4F9183808342
:10256000DE01A75ABF4FFE01E75AFF4F80819181DC
:10257000019711969C938E93FE01E75AFF4F80813D
:1025800091810097D1F627C08E01075A1F4FFE0197
:10259000E55AFF4F60817181828193810E944900D9
:1025A000DC01CB01F80191838083DE01AB5ABF4F80
:1025B000FE01E75AFF4F808191818D939C93FE012C
:1025C000EB5AFF4F808191810197F1F7FE01EB5AA1
:1025D000FF4F9183808380E062E041E00E948D0B99
:1025E000FE01EF5AFF4F80E090E0A0E8BFE3808358
:1025F0009183A283B3838E01035B1F4FFE01EF5AC9
:10260000FF4F608171818281938120E030E04AE751
:1026100053E40E941F02DC01CB01F8018083918307
:10262000A283B383FE01E35BFF4F608171818281EE
:10263000938120E030E040E85FE30E942504882396
:1026400044F4FE01E55BFF4F81E090E091838083DD
:1026500064C0FE01E35BFF4F6081718182819381E1
:1026600020E03FEF4FE757E40E94C50318160CF037
:1026700043C0FE01EF5AFF4F6081718182819381D7
:1026800020E030E040E251E40E941F02DC01CB0177
:102690008E01055B1F4FBC01CD010E944900DC018A
:1026A000CB01F801918380831FC0FE01E75BFF4FE0
:1026B00089E190E091838083FE01E75BFF4F808199
:1026C00091810197F1F7FE01E75BFF4F91838083D2
:1026D000DE01A55BBF4FFE01E55BFF4F808191816D
:1026E000019711969C938E93FE01E55BFF4F8081CD
:1026F00091810097D1F627C08E01055B1F4FFE0127
:10270000E35BFF4F60817181828193810E94490068
:10271000DC01CB01F80191838083DE01A95BBF4F0F
:10272000FE01E55BFF4F808191818D939C93FE01BB
:10273000E95BFF4F808191810197F1F7FE01E95B31
:10274000FF4F91838083FE01ED59FF4F8081882FD9
:1027500090E0807190709595879595958795959562
:10276000879595958795982F81E060E0492F0E9485
:102770008D0BFE01ED59FF4F8081882F90E0807214
:10278000907095958795959587959595879595954D
:10279000879595958795982F81E061E0492F0E9454
:1027A0008D0BFE01ED59FF4F8081882F90E08074E2
:1027B0009070082E892F000C881F990B000C881F21
:1027C000991F982F81E062E0492F0E948D0BFE0136
:1027D000ED59FF4F8081982F991F9927991F81E00C
:1027E00064E0492F0E948D0BFE01ED5BFF4F80E0FE
:1027F00090E0A0E8BFE380839183A283B3838E013E
:10280000015C1F4FFE01ED5BFF4F60817181828192
:10281000938120E030E04AE753E40E941F02DC018C
:10282000CB01F80180839183A283B383FE01FF96DD
:10283000608171818281938120E030E040E85FE334
:102840000E94250488232CF481E090E09EAF8DAF98
:1028500046C0FE01FF96608171818281938120E0F4
:102860003FEF4FE757E40E94C503181664F5FE01D9
:10287000ED5BFF4F608171818281938120E030E0C8
:1028800040E251E40E941F02DC01CB01BC01CD01FA
:102890000E944900DC01CB019EAF8DAF0FC089E1E2
:1028A00090E09CAF8BAF8BAD9CAD0197F1F79CAFE7
:1028B0008BAF8DAD9EAD01979EAF8DAF8DAD9EADB3
:1028C000009769F716C0FE01FF96608171818281D1
:1028D00093810E944900DC01CB019EAF8DAF8DAD8D
:1028E0009EAD9AAF89AF89AD9AAD0197F1F79AAFD6
:1028F00089AF80E062E040E00E948D0B80E090E0D4
:10290000A0E8BFE38DAB9EABAFABB8AF6DA97EA91E
:102910008FA998AD20E030E04AE753E40E941F02FF
:10292000DC01CB0189AB9AABABABBCAB69A97AA993
:102930008BA99CA920E030E040E85FE30E942504D9
:1029400088232CF481E090E098AB8FA73FC069A961
:102950007AA98BA99CA920E03FEF4FE757E40E949A
:10296000C50318164CF56DA97EA98FA998AD20E076
:1029700030E040E251E40E941F02DC01CB01BC01C7
:10298000CD010E944900DC01CB0198AB8FA70FC09D
:1029900089E190E09EA78DA78DA59EA50197F1F7EF
:1029A0009EA78DA78FA598A9019798AB8FA78FA5F4
:1029B00098A9009769F714C069A97AA98BA99CA95D
:1029C0000E944900DC01CB0198AB8FA78FA598A985
:1029D0009CA78BA78BA59CA50197F1F79CA78BA71C
:1029E00080E062E041E00E948D0B80E090E0A0E892
:1029F000BFE38FA398A7A9A7BAA76FA178A589A5B8
:102A00009AA520E030E04AE753E40E941F02DC016F
:102A1000CB018BA39CA3ADA3BEA36BA17CA18DA175
:102A20009EA120E030E040E85FE30E942504882377
:102A30002CF481E090E09AA389A33FC06BA17CA114
:102A40008DA19EA120E03FEF4FE757E40E94C50310
:102A500018164CF56FA178A589A59AA520E030E05D
:102A600040E251E40E941F02DC01CB01BC01CD0118
:102A70000E944900DC01CB019AA389A30FC089E120
:102A800090E098A38F8F8F8D98A10197F1F798A36D
:102A90008F8F89A19AA101979AA389A389A19AA14D
:102AA000009769F714C06BA17CA18DA19EA10E9423
:102AB0004900DC01CB019AA389A389A19AA19E8F29
:102AC0008D8F8D8D9E8D0197F1F79E8F8D8FFE01DD
:102AD000ED59FF4F8081982F917081E060E0492F80
:102AE0000E948D0BFE01ED59FF4F8081882F90E0F1
:102AF0008270907095958795982F81E061E0492FBD
:102B00000E948D0BFE01ED59FF4F8081882F90E0D0
:102B1000847090709595879595958795982F81E00D
:102B200062E0492F0E948D0BFE01ED59FF4F80811D
:102B3000882F90E0887090709595879595958795EA
:102B400095958795982F81E064E0492F0E948D0B21
:102B500080E090E0A0E8BFE3898F9A8FAB8FBC8FB5
:102B6000698D7A8D8B8D9C8D20E030E04AE753E4AF
:102B70000E941F02DC01CB018D8B9E8BAF8BB88F27
:102B80006D897E898F89988D20E030E040E85FE391
:102B90000E94250488232CF481E090E09C8B8B8B91
:102BA0003FC06D897E898F89988D20E03FEF4FE788
:102BB00057E40E94C50318164CF5698D7A8D8B8DEC
:102BC0009C8D20E030E040E251E40E941F02DC01D5
:102BD000CB01BC01CD010E944900DC01CB019C8BE3
:102BE0008B8B0FC089E190E09A8B898B89899A89B8
:102BF0000197F1F79A8B898B8B899C8901979C8B24
:102C00008B8B8B899C89009769F714C06D897E89AD
:102C10008F89988D0E944900DC01CB019C8B8B8BA6
:102C20008B899C89988B8F878F8598890197F1F77D
:102C3000988B8F8780E062E040E00E948D0B80E0FF
:102C400090E0A0E8BFE38B879C87AD87BE876B854C
:102C50007C858D859E8520E030E04AE753E40E9424
:102C60001F02DC01CB018F839887A987BA876F8108
:102C7000788589859A8520E030E040E85FE30E940E
:102C8000250488232CF481E090E09E838D833FC04F
:102C90006F81788589859A8520E03FEF4FE757E47B
:102CA0000E94C50318164CF56B857C858D859E8525
:102CB00020E030E040E251E40E941F02DC01CB0141
:102CC000BC01CD010E944900DC01CB019E838D83B4
:102CD0000FC089E190E09C838B838B819C8101975D
:102CE000F1F79C838B838D819E8101979E838D83D9
:102CF0008D819E81009769F714C06F8178858985E1
:102D00009A850E944900DC01CB019E838D838D81D1
:102D10009E819A83898389819A810197F1F79A83A9
:102D20008983CD59DF4F0FB6F894DEBF0FBECDBFFC
:102D3000CF91DF911F910F9108950F931F93DF9310
:102D4000CF93CDB7DEB7C356D0400FB6F894DEBFF1
:102D50000FBECDBFFE01ED59FF4F808380E063E0E1
:102D600041E00E948D0BFE01E15AFF4F80E090E0B0
:102D7000A0E8BFE380839183A283B3838E01055AC9
:102D80001F4FFE01E15AFF4F608171818281938163
:102D900020E030E04AE753E40E941F02DC01CB014F
:102DA000F80180839183A283B383FE01E55AFF4F2C
:102DB000608171818281938120E030E040E85FE3AF
:102DC0000E942504882344F4FE01E75AFF4F81E066
:102DD00090E09183808364C0FE01E55AFF4F6081DB
:102DE00071818281938120E03FEF4FE757E40E9499
:102DF000C50318160CF043C0FE01E15AFF4F608175
:102E000071818281938120E030E040E251E40E94B0
:102E10001F02DC01CB018E01075A1F4FBC01CD01FF
:102E20000E944900DC01CB01F801918380831FC01F
:102E3000FE01E95AFF4F89E190E091838083FE0112
:102E4000E95AFF4F808191810197F1F7FE01E95A1C
:102E5000FF4F91838083DE01A75ABF4FFE01E75ADF
:102E6000FF4F80819181019711969C938E93FE0173
:102E7000E75AFF4F808191810097D1F627C08E01DC
:102E8000075A1F4FFE01E55AFF4F60817181828111
:102E900093810E944900DC01CB01F801918380837A
:102EA000DE01AB5ABF4FFE01E75AFF4F808191818F
:102EB0008D939C93FE01EB5AFF4F80819181019786
:102EC000F1F7FE01EB5AFF4F9183808380E062E0CF
:102ED00041E00E948D0BFE01EF5AFF4F80E090E031
:102EE000A0E8BFE380839183A283B3838E01035B59
:102EF0001F4FFE01EF5AFF4F6081718182819381E4
:102F000020E030E04AE753E40E941F02DC01CB01DD
:102F1000F80180839183A283B383FE01E35BFF4FBB
:102F2000608171818281938120E030E040E85FE33D
:102F30000E942504882344F4FE01E55BFF4F81E0F5
:102F400090E09183808364C0FE01E35BFF4F60816A
:102F500071818281938120E03FEF4FE757E40E9427
:102F6000C50318160CF043C0FE01EF5AFF4F6081F5
:102F700071818281938120E030E040E251E40E943F
:102F80001F02DC01CB018E01055B1F4FBC01CD018F
:102F90000E944900DC01CB01F801918380831FC0AE
:102FA000FE01E75BFF4F89E190E091838083FE01A2
:102FB000E75BFF4F808191810197F1F7FE01E75BAD
:102FC000FF4F91838083DE01A55BBF4FFE01E55B70
:102FD000FF4F80819181019711969C938E93FE0102
:102FE000E55BFF4F808191810097D1F627C08E016C
:102FF000055B1F4FFE01E35BFF4F608171818281A2
:1030000093810E944900DC01CB01F8019183808308
:10301000DE01A95BBF4FFE01E55BFF4F808191811F
:103020008D939C93FE01E95BFF4F80819181019715
:10303000F1F7FE01E95BFF4F91838083FE01ED59BB
:10304000FF4F8081882F90E08071907095958795D3
:10305000959587959595879595958795982F81E076
:1030600060E0492F0E948D0BFE01ED59FF4F8081DA
:10307000882F90E0807290709595879595958795AB
:10308000959587959595879595958795982F81E046
:1030900061E0492F0E948D0BFE01ED59FF4F8081A9
:1030A000882F90E080749070082E892F000C881F64
:1030B000990B000C881F991F982F81E062E0492F1F
:1030C0000E948D0BFE01ED59FF4F8081982F991FB3
:1030D0009927991F81E064E0492F0E948D0BFE0122
:1030E000ED5BFF4F80E090E0A0E8BFE38083918339
:1030F000A283B3838E01015C1F4FFE01ED5BFF4F86
:10310000608171818281938120E030E04AE753E45D
:103110000E941F02DC01CB01F80180839183A2830E
:10312000B383FE01FF96608171818281938120E0EB
:1031300030E040E85FE30E94250488232CF481E01E
:1031400090E09EAF8DAF46C0FE01FF966081718119
:103150008281938120E03FEF4FE757E40E94C5034F
:10316000181664F5FE01ED5BFF4F6081718182816D
:10317000938120E030E040E251E40E941F02DC0134
:10318000CB01BC01CD010E944900DC01CB019EAF07
:103190008DAF0FC089E190E09CAF8BAF8BAD9CAD44
:1031A0000197F1F79CAF8BAF8DAD9EAD01979EAFB0
:1031B0008DAF8DAD9EAD009769F716C0FE01FF96ED
:1031C00060817181828193810E944900DC01CB0181
:1031D0009EAF8DAF8DAD9EAD9AAF89AF89AD9AADE3
:1031E0000197F1F79AAF89AF80E062E040E00E947A
:1031F0008D0B80E090E0A0E8BFE38DAB9EABAFAB62
:10320000B8AF6DA97EA98FA998AD20E030E04AE75C
:1032100053E40E941F02DC01CB0189AB9AABABAB3C
:10322000BCAB69A97AA98BA99CA920E030E040E851
:103230005FE30E94250488232CF481E090E098ABA2
:103240008FA73FC069A97AA98BA99CA920E03FEF6D
:103250004FE757E40E94C50318164CF56DA97EA9E7
:103260008FA998AD20E030E040E251E40E941F02B7
:10327000DC01CB01BC01CD010E944900DC01CB0186
:1032800098AB8FA70FC089E190E09EA78DA78DA571
:103290009EA50197F1F79EA78DA78FA598A90197E5
:1032A00098AB8FA78FA598A9009769F714C069A953
:1032B0007AA98BA99CA90E944900DC01CB0198AB9B
:1032C0008FA78FA598A99CA78BA78BA59CA50197D5
:1032D000F1F79CA78BA780E062E041E00E948D0B94
:1032E00080E090E0A0E8BFE38FA398A7A9A7BAA7C2
:1032F0006FA178A589A59AA520E030E04AE753E4BC
:103300000E941F02DC01CB018BA39CA3ADA3BEA333
:103310006BA17CA18DA19EA120E030E040E85FE39D
:103320000E94250488232CF481E090E09AA389A3CD
:103330003FC06BA17CA18DA19EA120E03FEF4FE794
:1033400057E40E94C50318164CF56FA178A589A50E
:103350009AA520E030E040E251E40E941F02DC0127
:10336000CB01BC01CD010E944900DC01CB019AA335
:1033700089A30FC089E190E098A38F8F8F8D98A1CA
:103380000197F1F798A38F8F89A19AA101979AA32A
:1033900089A389A19AA1009769F714C06BA17CA1A8
:1033A0008DA19EA10E944900DC01CB019AA389A3B3
:1033B00089A19AA19E8F8D8F8D8D9E8D0197F1F79A
:1033C0009E8F8D8FFE01ED59FF4F8081982F917058
:1033D00081E060E0492F0E948D0BFE01ED59FF4F07
:1033E0008081882F90E08270907095958795982FB6
:1033F00081E061E0492F0E948D0BFE01ED59FF4FE6
:103400008081882F90E08470907095958795959530
:103410008795982F81E062E0492F0E948D0BFE0175
:10342000ED59FF4F8081882F90E0887090709595BE
:1034300087959595879595958795982F81E064E078
:10344000492F0E948D0B80E090E0A0E8BFE3898FB8
:103450009A8FAB8FBC8F698D7A8D8B8D9C8D20E080
:1034600030E04AE753E40E941F02DC01CB018D8B60
:103470009E8BAF8BB88F6D897E898F89988D20E068
:1034800030E040E85FE30E94250488232CF481E0CB
:1034900090E09C8B8B8B3FC06D897E898F89988D46
:1034A00020E03FEF4FE757E40E94C50318164CF5A4
:1034B000698D7A8D8B8D9C8D20E030E040E251E467
:1034C0000E941F02DC01CB01BC01CD010E9449001A
:1034D000DC01CB019C8B8B8B0FC089E190E09A8B38
:1034E000898B89899A890197F1F79A8B898B8B89C6
:1034F0009C8901979C8B8B8B8B899C89009769F7A2
:1035000014C06D897E898F89988D0E944900DC01E5
:10351000CB019C8B8B8B8B899C89988B8F878F851C
:1035200098890197F1F7988B8F8780E062E040E0FF
:103530000E948D0B80E090E0A0E8BFE38B879C8722
:10354000AD87BE876B857C858D859E8520E030E0CC
:103550004AE753E40E941F02DC01CB018F83988766
:10356000A987BA876F81788589859A8520E030E0C0
:1035700040E85FE30E94250488232CF481E090E07A
:103580009E838D833FC06F81788589859A8520E0F1
:103590003FEF4FE757E40E94C50318164CF56B85C3
:1035A0007C858D859E8520E030E040E251E40E94DC
:1035B0001F02DC01CB01BC01CD010E944900DC01EE
:1035C000CB019E838D830FC089E190E09C838B8328
:1035D0008B819C810197F1F79C838B838D819E81E8
:1035E00001979E838D838D819E81009769F714C01A
:1035F0006F81788589859A850E944900DC01CB011D
:103600009E838D838D819E819A83898389819A810E
:103610000197F1F79A838983CD59DF4F0FB6F8945C
:10362000DEBF0FBECDBFCF91DF911F910F910895E7
:10363000DF93CF9300D00F92CDB7DEB79B838A8301
:1036400019820EC08981282F30E08A819B81FC017C
:10365000E20FF31F80810E949D1689818F5F89830D
:103660008981282F30E08A819B81FC01E20FF31FC2
:103670008081882339F70F900F900F90CF91DF91C1
:103680000895DF93CF93CDB7DEB781E00E94221279
:10369000CF91DF910895DF93CF9300D000D00F92A8
:1036A000CDB7DEB78A836B8319828A81282F30E0F9
:1036B0003D832C838C819D8181309105C9F02C81C3
:1036C0003D81223031052CF48C819D81009761F081
:1036D0001AC02C813D812230310571F08C819D8191
:1036E0008330910569F00FC08B81805889830BC0AE
:1036F0008B818054898307C08B818C56898303C05A
:103700008B818C528983898180680E9422120F905C
:103710000F900F900F900F90CF91DF910895DF934E
:10372000CF9300D000D0CDB7DEB789836A835C83A6
:103730004B8389816A810E944B1B8B819C810E94F3
:10374000181B0F900F900F900F90CF91DF9108955D
:10375000DF93CF93CDB7DEB762970FB6F894DEBF95
:103760000FBECDBF9A8B898B89899A899E012F5F65
:103770003F4FB9014AE050E00E94F324CE01019688
:103780000E94181B62960FB6F894DEBF0FBECDBF25
:10379000CF91DF910895DF93CF93CDB7DEB783E06C
:1037A00067E040E00E945E0A83E066E040E00E943D
:1037B0005E0A83E065E040E00E945E0A83E063E029
:1037C00040E00E945E0A82E065E040E00E945E0AFE
:1037D00082E064E040E00E945E0A82E063E040E054
:1037E0000E945E0A82E062E040E00E945E0A82E09F
:1037F00065E041E00E948D0B82E064E041E00E94C0
:103800008D0B82E063E041E00E948D0B82E062E07C
:1038100041E00E948D0BCF91DF910895DF93CF930C
:1038200000D00F92CDB7DEB71B827AC08B81882F74
:1038300090E0FC01E658FD4F908182E0692F41E065
:103840000E945E0A8B81882F90E0FC01E658FD4FB4
:10385000908182E0692F40E00E948D0B1A8241C066
:103860008A81882F90E0FC01E258FD4F908183E02F
:10387000692F0E94780C89838981882379F58B814F
:10388000882F90E0FC01E658FD4F908182E0692F7F
:1038900040E00E945E0A8B81882F90E0FC01E65890
:1038A000FD4F908182E0692F41E00E948D0B8B815A
:1038B000482F50E08A81282F30E0CA01880F991FD5
:1038C000880F991F820F931FFC01ED57FD4F8081D8
:1038D0000F900F900F90CF91DF9108958A818F5FA5
:1038E0008A838A81843008F4BBCF8B81882F90E053
:1038F000FC01E658FD4F908182E0692F40E00E9474
:103900005E0A8B81882F90E0FC01E658FD4F908184
:1039100082E0692F41E00E948D0B8B818F5F8B834A
:103920008B81843008F482CF7FCFDF93CF93CDB7E4
:10393000DEB783E067E040E00E945E0A83E066E075
:1039400040E00E945E0A83E065E040E00E945E0A7B
:1039500083E064E040E00E945E0A83E063E040E0D0
:103960000E945E0A82E060E00E94490BCF91DF91E5
:103970000895DF93CF93CDB7DEB761970FB6F89474
:10398000DEBF0FBECDBF888B698B82E0698941E0C5
:103990000E945E0A82E0698940E00E948D0B80E00F
:1039A00090E0A0EAB1E48B879C87AD87BE876B85EA
:1039B0007C858D859E8520E030E04AE753E40E94B7
:1039C0001F02DC01CB018F839887A987BA876F819B
:1039D000788589859A8520E030E040E85FE30E94A1
:1039E000250488232CF481E090E09E838D833FC0E2
:1039F0006F81788589859A8520E03FEF4FE757E40E
:103A00000E94C50318164CF56B857C858D859E85B7
:103A100020E030E040E251E40E941F02DC01CB01D3
:103A2000BC01CD010E944900DC01CB019E838D8346
:103A30000FC089E190E09C838B838B819C810197EF
:103A4000F1F79C838B838D819E8101979E838D836B
:103A50008D819E81009769F714C06F817885898573
:103A60009A850E944900DC01CB019E838D838D8164
:103A70009E819A83898389819A810197F1F79A833C
:103A80008983E0E3F0E08081482F50E08889282F87
:103A900030E081E090E002C0880F991F2A95E2F79C
:103AA0009A01282339238889882F90E0A90102C030
:103AB000559547958A95E2F7CA018F878F8561965C
:103AC0000FB6F894DEBF0FBECDBFCF91DF91089542
:103AD000DF93CF93CDB7DEB70E94F81080E690E079
:103AE0000E94181B0E94CB1BCF91DF910895DF939A
:103AF000CF93CDB7DEB70E94411B80E060E00E940B
:103B00004B1B86E690E00E94181B81E060E00E945B
:103B10004B1B85E790E00E94181B82E060E00E944A
:103B20004B1B84E890E00E94181B83E060E00E9439
:103B30004B1B83E990E00E94181BCF91DF91089501
:103B4000DF93CF9300D000D0CDB7DEB79C838B83BB
:103B50001A8219821EC08981482F50E0CA01880F3D
:103B6000991F9C01220F331F220F331F820F931FB7
:103B7000840F951FFC01E856FD4F8081882331F4A6
:103B800081E08A83EB81FC818981808389818F5FD9
:103B900089838981843018F48A818823E1F20F9027
:103BA0000F900F900F90CF91DF9108950F931F9377
:103BB000DF93CF93CDB7DEB763970FB6F894DEBF30
:103BC0000FBECDBF188A0E94411B80E060E00E94BA
:103BD0004B1B82EA90E00E94181B81E063E00E9488
:103BE0004B1B81EB90E00E94181B82E063E00E9477
:103BF0004B1B8EEB90E00E94181B0E940E1C8F87BF
:103C00008F85882309F069C20E94411B80E060E033
:103C10000E944B1B88EC90E00E94181B809182024E
:103C2000853008F0D6C1809182028F5F8093820236
:103C3000CE0143960E94A01D8B89482F50E0CA01F7
:103C4000880F991F9C01220F331F220F331F820FF1
:103C5000931F840F951FFC01E856FD4F81E0808380
:103C600082E069E00E944B1B8AE30E949D1682E07D
:103C700067E00E944B1B84E0898BA6C18989843050
:103C800039F50E940E1C8A8B82E067E00E944B1B74
:103C90008A89882F90E00E94A81B8B89482F50E0CA
:103CA0008A89682F70E0CA01880F991F9C01220F32
:103CB000331F220F331F820F931F840F951FFC01A8
:103CC000E756FD4F718360838A898730D0F679C1CA
:103CD0008989833009F0AAC00E940E1C8A8B82E079
:103CE00068E00E944B1B8A89882F90E00E94A81BE5
:103CF0008B89482F50E08A89682F70E0CA01880FAD
:103D0000991F9C01220F331F220F331F820F931F15
:103D1000840F951FFC01E556FD4F718360838A89EE
:103D20008823B9F08B89482F50E0CA01880F991F6A
:103D30009C01220F331F220F331F820F931F840F0A
:103D4000951FFC01E756FD4F8081918186309105DA
:103D500019F28B89482F50E0CA01880F991F9C01E6
:103D6000220F331F220F331F820F931F840F951FC3
:103D7000FC01E756FD4F808191819C01220F331F8A
:103D8000C901880F991F880F991F820F931F682FF1
:103D90008B89482F50E0CA01880F991F9C01220F80
:103DA000331F220F331F820F931F840F951FFC01B7
:103DB000E556FD4F80819181860F888B8B89682F16
:103DC00070E08B89482F50E0CA01880F991F9C0131
:103DD000220F331F220F331F820F931F840F951F53
:103DE000FC01EF55FD4F408151818889282F30E03B
:103DF0008CE390E0FC012E9FC0012F9F900D3E9F11
:103E0000900D1124480F591FCB01880F991F9C0159
:103E1000220F331F220F331F820F931F860F971F0E
:103E2000FC01EF55FD4F51834083CBC0898982301F
:103E300039F50E940E1C8A8B82E06AE00E944B1BBF
:103E40008A89882F90E00E94A81B8B89482F50E018
:103E50008A89682F70E0CA01880F991F9C01220F80
:103E6000331F220F331F820F931F840F951FFC01F6
:103E7000E356FD4F718360838A898730D0F6A1C0F5
:103E80008989813009F09DC00E940E1C8A8B82E0D6
:103E90006BE00E944B1B8A89882F90E00E94A81B30
:103EA0008B89482F50E08A89682F70E0CA01880FFB
:103EB000991F9C01220F331F220F331F820F931F64
:103EC000840F951FFC01E156FD4F718360838A8941
:103ED0008823B9F08B89482F50E0CA01880F991FB9
:103EE0009C01220F331F220F331F820F931F840F59
:103EF000951FFC01E356FD4F80819181863091052D
:103F000019F28B89A82FB0E08B89482F50E0CA01A5
:103F1000880F991F9C01220F331F220F331F820F1E
:103F2000931F840F951FFC01EF55FD4F00811181F8
:103F30008B89482F50E0CA01880F991F9C01220FDE
:103F4000331F220F331F820F931F840F951FFC0115
:103F5000E356FD4F808191819C01220F331FC901DF
:103F6000880F991F880F991FB901680F791F8B89D6
:103F7000482F50E0CA01880F991F9C01220F331F60
:103F8000220F331F820F931F840F951FFC01E156F0
:103F9000FD4F80819181860F971FA801480F591FFF
:103FA000CD01880F991F9C01220F331F220F331F51
:103FB000820F931F8A0F9B1FFC01EF55FD4F51830A
:103FC000408389898150898B8989882309F056CE5D
:103FD00012C00E94411B81E060E00E944B1B87EDF4
:103FE00090E00E94181B82E060E00E944B1B89EE6B
:103FF00090E00E94181B80E090E0AAEFB3E48B876A
:104000009C87AD87BE876B857C858D859E8520E0EE
:1040100030E04AE753E40E941F02DC01CB018F83AA
:104020009887A987BA876F81788589859A8520E0E6
:1040300030E040E85FE30E94250488232CF481E00F
:1040400090E09E838D833FC06F81788589859A85B6
:1040500020E03FEF4FE757E40E94C50318164CF5E8
:104060006B857C858D859E8520E030E040E251E4C3
:104070000E941F02DC01CB01BC01CD010E9449005E
:10408000DC01CB019E838D830FC089E190E09C838E
:104090008B838B819C810197F1F79C838B838D812E
:1040A0009E8101979E838D838D819E81009769F704
:1040B00014C06F81788589859A850E944900DC014A
:1040C000CB019E838D838D819E819A838983898193
:1040D0009A810197F1F79A83898363960FB6F894D2
:1040E000DEBF0FBECDBFCF91DF911F910F9108951D
:1040F000DF93CF93CDB7DEB762970FB6F894DEBFEC
:104100000FBECDBF1A8A188A0E94411B81E063E06E
:104110000E944B1B80EF90E00E94181B82E063E03E
:104120000E944B1B8EEB90E00E94181B0E940E1CFD
:10413000898B8989853209F41EC10E94411B8091B7
:104140009802882309F088C08091A302882309F08F
:1041500083C08091AE02882309F07EC08091B902AD
:10416000882309F079C089EF90E00E94181B80E055
:1041700090E0AAE7B4E48B879C87AD87BE876B8508
:104180007C858D859E8520E030E04AE753E40E94DF
:104190001F02DC01CB018F839887A987BA876F81C3
:1041A000788589859A8520E030E040E85FE30E94C9
:1041B000250488232CF481E090E09E838D833FC00A
:1041C0006F81788589859A8520E03FEF4FE757E436
:1041D0000E94C50318164CF56B857C858D859E85E0
:1041E00020E030E040E251E40E941F02DC01CB01FC
:1041F000BC01CD010E944900DC01CB019E838D836F
:104200000FC089E190E09C838B838B819C81019717
:10421000F1F79C838B838D819E8101979E838D8393
:104220008D819E81009769F714C06F81788589859B
:104230009A850E944900DC01CB019E838D838D818C
:104240009E819A83898389819A810197F1F79A8364
:10425000898381E0888B8FC01F8689C08F85482F16
:1042600050E0CA01880F991F9C01220F331F220FB3
:10427000331F820F931F840F951FFC01E856FD4FDB
:104280008081882309F470C09A898A898F5F8A8B1C
:10429000892F60E00E944B1B8FE091E00E94181B69
:1042A0008F85882F90E00E94A81B87E191E00E94F3
:1042B000181B8F85482F50E0CA01880F991F9C0159
:1042C000220F331F220F331F820F931F840F951F5E
:1042D000FC01E756FD4F808191810E94A81B8F85CC
:1042E000482F50E0CA01880F991F9C01220F331FED
:1042F000220F331F820F931F840F951FFC01E55679
:10430000FD4F808191810E94A81B8AE30E949D1627
:104310008F85482F50E0CA01880F991F9C01220FFA
:10432000331F220F331F820F931F840F951FFC0131
:10433000E356FD4F808191810E94A81B8F85482FF5
:1043400050E0CA01880F991F9C01220F331F220FD2
:10435000331F820F931F840F951FFC01E156FD4F01
:10436000808191810E94A81B8F858F5F8F878F85A9
:10437000843008F473CF1A8A8989853221F08889BC
:10438000882309F4D3CE62960FB6F894DEBF0FBE31
:10439000CDBFCF91DF910895DF93CF93CDB7DEB737
:1043A000A1970FB6F894DEBF0FBECDBF18A21F8E27
:1043B0001E8E0E94411B80E060E00E944B1B82EA3F
:1043C00090E00E94181B81E063E00E944B1B81EB90
:1043D00090E00E94181B82E063E00E944B1B8EEB72
:1043E00090E00E94181B0E940E1C8E8F8E8D8823D9
:1043F00009F087C280919802882309F088C08091D3
:10440000A302882309F083C08091AE02882309F0BB
:104410007EC08091B902882309F079C00E94411BB7
:104420008CE191E00E94181B80E090E0AAE7B4E4E0
:10443000898F9A8FAB8FBC8F698D7A8D8B8D9C8D78
:1044400020E030E04AE753E40E941F02DC01CB0188
:104450008D8B9E8BAF8BB88F6D897E898F89988D60
:1044600020E030E040E85FE30E94250488232CF43C
:1044700081E090E09C8B8B8B3FC06D897E898F891A
:10448000988D20E03FEF4FE757E40E94C5031816D0
:104490004CF5698D7A8D8B8D9C8D20E030E040E26B
:1044A00051E40E941F02DC01CB01BC01CD010E943E
:1044B0004900DC01CB019C8B8B8B0FC089E190E024
:1044C0009A8B898B89899A890197F1F79A8B898BC5
:1044D0008B899C8901979C8B8B8B8B899C890097FE
:1044E00069F70FC26D897E898F89988D0E94490076
:1044F000DC01CB019C8B8B8B8B899C89988B8F8764
:104500008F8598890197F1F7988B8F87FAC18F8DE6
:10451000882309F10E94411B8EE291E00E94181B42
:1045200081E068E00E944B1B83E491E00E94181B2D
:1045300082E063E00E944B1B82EA90E00E94181B1D
:1045400083E060E00E944B1B86E491E00E94181B10
:104550000E940E1C8E8F8E8D882309F0B3C00E949E
:10456000411B1D8E89C08D8D482F50E0CA01880FD8
:10457000991F9C01220F331F220F331F820F931F9D
:10458000840F951FFC01E856FD4F8081882309F4B4
:1045900070C098A188A18F5F88A3892F60E00E94D6
:1045A0004B1B8FE091E00E94181B8D8D882F90E0AF
:1045B0000E94A81B87E191E00E94181B8D8D482F57
:1045C00050E0CA01880F991F9C01220F331F220F50
:1045D000331F820F931F840F951FFC01E756FD4F79
:1045E000808191810E94A81B8D8D482F50E0CA01C7
:1045F000880F991F9C01220F331F220F331F820F38
:10460000931F840F951FFC01E556FD4F808191811A
:104610000E94A81B8AE30E949D168D8D482F50E0B2
:10462000CA01880F991F9C01220F331F220F331FCD
:10463000820F931F840F951FFC01E356FD4F80816D
:1046400091810E94A81B8D8D482F50E0CA01880FD0
:10465000991F9C01220F331F220F331F820F931FBC
:10466000840F951FFC01E156FD4F808191810E94CE
:10467000A81B8D8D8F5F8D8F8D8D843008F473CF47
:1046800080E061E10E944B1B8CE70E949D1681E057
:1046900061E10E944B1B8CE70E949D1682E061E164
:1046A0000E944B1B8CE70E949D1683E061E10E94F3
:1046B0004B1B8CE70E949D160E940E1C89A381E073
:1046C0008F8F01C01F8E89A1482F50E0CA01880F2B
:1046D000991F9C01220F331F220F331F820F931F3C
:1046E000840F951FFC01E856FD4F8081882321F43B
:1046F0008F8D813009F40BCF80918202815080939D
:1047000082028F8D813009F0FCC089A1482F50E0D2
:10471000CA01880F991F9C01220F331F220F331FDC
:10472000820F931F840F951FFC01E856FD4F1082E6
:1047300089A1482F50E0CA01880F991F9C01220FC0
:10474000331F220F331F820F931F840F951FFC010D
:10475000E756FD4F1182108289A1482F50E0CA010F
:10476000880F991F9C01220F331F220F331F820FC6
:10477000931F840F951FFC01E556FD4F1182108297
:1047800089A1482F50E0CA01880F991F9C01220F70
:10479000331F220F331F820F931F840F951FFC01BD
:1047A000E356FD4F1182108289A1482F50E0CA01C3
:1047B000880F991F9C01220F331F220F331F820F76
:1047C000931F840F951FFC01E156FD4F118210824B
:1047D00089A1482F50E0CA01880F991F9C01220F20
:1047E000331F220F331F820F931F840F951FFC016D
:1047F000EF55FD4F118210820E94411B81E060E065
:104800000E944B1B89E591E00E94181B89A1882F0B
:1048100090E00E94A81B80E691E00E94181B80E0B7
:1048200090E0AAEFB4E48B879C87AD87BE876B8549
:104830007C858D859E8520E030E04AE753E40E9428
:104840001F02DC01CB018F839887A987BA876F810C
:10485000788589859A8520E030E040E85FE30E9412
:10486000250488232CF481E090E09E838D833FC053
:104870006F81788589859A8520E03FEF4FE757E47F
:104880000E94C50318164CF56B857C858D859E8529
:1048900020E030E040E251E40E941F02DC01CB0145
:1048A000BC01CD010E944900DC01CB019E838D83B8
:1048B0000FC089E190E09C838B838B819C81019761
:1048C000F1F79C838B838D819E8101979E838D83DD
:1048D0008D819E81009769F714C06F8178858985E5
:1048E0009A850E944900DC01CB019E838D838D81D6
:1048F0009E819A83898389819A810197F1F79A83AE
:104900008983A1960FB6F894DEBF0FBECDBFCF91BD
:10491000DF910895DF93CF930F92CDB7DEB7198261
:104920000E94771D0E940E1C898389818B3231F091
:1049300089818D3219F089818A32A1F789818B3280
:1049400019F40E94D61D0BC089818D3219F40E9482
:10495000CC2105C089818A3211F40E9478200F9001
:10496000CF91DF910895DF93CF93CDB7DEB70E944B
:10497000681D0E948A24FDCF2F923F924F925F9232
:104980006F927F928F929F92AF92BF92CF92DF925F
:10499000EF92FF920F931F93CF93DF93CDB7DEB7C4
:1049A000CA1BDB0B0FB6F894DEBF0FBECDBF099458
:1049B0002A88398848885F846E847D848C849B84AF
:1049C000AA84B984C884DF80EE80FD800C811B81BD
:1049D000AA81B981CE0FD11D0FB6F894DEBF0FBEEC
:1049E000CDBFED010895FB019F01E8944230C4F072
:1049F0004532B4F44A3029F497FB1EF49095819522
:104A00009F4F642F77270E942425805D8A330CF006
:104A1000895D8193CB010097A1F716F45DE2519374
:104A20001082C9010C941425DC01FC01672F7191DF
:104A30007723E1F7329704C07C916D937083629184
:104A4000AE17BF07C8F30895AA1BBB1B51E107C0EF
:104A5000AA1FBB1FA617B70710F0A61BB70B881F0E
:104A6000991F5A95A9F780959095BC01CD0108959D
:044A7000F894FFCFE8
:104A740068656C6C6F002B53657420416C61726DBA
:104A84002020207C002D43616E63656C20416C61A5
:104A9400726D7C002A416C61726D204C69737420C4
:104AA400207C0020202020202020202020202020C6
:104AB4007C00706C656173652063686F6F73653A21
:104AC40000302E5B636F6E74696E75655D00252E14
:104AD4005B636C6F73655D00536574207468652057
:104AE400616C61726D3A006E6F206D6F726520614A
:104AF4007661696C61626C6500616C61726D7300F2
:104B0400302E5B73686F775D006E6F20616C61722D
:104B14006D7320617265207365742079657400413A
:104B24006C61726D3A2000202D3E20006E6F206172
:104B34006C61726D73206172652073657400796FA6
:104B4400752063686F7365206120756E2076616CD3
:104B5400696400494400302E5B5965735D2020254B
:104B64002E5B636C6F73655D00616C61726D200018
:104B74002069732063616E63656C6C65640000007A
:104B84000000000000000001020203030303040408
:104B940004040404040405050505050505050505C7
:104BA40005050505050506060606060606060606A7
:104BB4000606060606060606060606060606060691
:104BC4000606060606060707070707070707070777
:104BD4000707070707070707070707070707070761
:104BE4000707070707070707070707070707070751
:104BF4000707070707070707070707070707070741
:104C04000707070707070808080808080808080826
:104C14000808080808080808080808080808080810
:104C24000808080808080808080808080808080800
:104C340008080808080808080808080808080808F0
:104C440008080808080808080808080808080808E0
:104C540008080808080808080808080808080808D0
:104C640008080808080808080808080808080808C0
:104C740008080808080808080808080808080808B0
:104C840008080808080885B1853C050403020706DE
:104C94000503013132332B3435362D3738392F2A79
:044CA40030233D007C
:00000001FF
